{
  "contractName": "ArmazenadorContrato",
  "abi": [
    {
      "constant": false,
      "inputs": [
        {
          "internalType": "string",
          "name": "_hash",
          "type": "string"
        },
        {
          "internalType": "string",
          "name": "_nomeArquivo",
          "type": "string"
        },
        {
          "internalType": "string",
          "name": "_tipoArquivo",
          "type": "string"
        },
        {
          "internalType": "uint256",
          "name": "_data",
          "type": "uint256"
        }
      ],
      "name": "add",
      "outputs": [],
      "payable": false,
      "stateMutability": "nonpayable",
      "type": "function"
    },
    {
      "constant": true,
      "inputs": [
        {
          "internalType": "uint256",
          "name": "_index",
          "type": "uint256"
        }
      ],
      "name": "getArquivo",
      "outputs": [
        {
          "internalType": "string",
          "name": "",
          "type": "string"
        },
        {
          "internalType": "string",
          "name": "",
          "type": "string"
        },
        {
          "internalType": "string",
          "name": "",
          "type": "string"
        },
        {
          "internalType": "uint256",
          "name": "",
          "type": "uint256"
        }
      ],
      "payable": false,
      "stateMutability": "view",
      "type": "function"
    },
    {
      "constant": true,
      "inputs": [],
      "name": "getLength",
      "outputs": [
        {
          "internalType": "uint256",
          "name": "",
          "type": "uint256"
        }
      ],
      "payable": false,
      "stateMutability": "view",
      "type": "function"
    }
  ],
  "bytecode": "0x608060405234801561001057600080fd5b506108ac806100206000396000f3fe608060405234801561001057600080fd5b50600436106100415760003560e01c80633f647a971461004657806347d508f414610239578063be1c766b146103bf575b600080fd5b6102376004803603608081101561005c57600080fd5b810190808035906020019064010000000081111561007957600080fd5b82018360208201111561008b57600080fd5b803590602001918460018302840111640100000000831117156100ad57600080fd5b91908080601f016020809104026020016040519081016040528093929190818152602001838380828437600081840152601f19601f8201169050808301925050505050505091929192908035906020019064010000000081111561011057600080fd5b82018360208201111561012257600080fd5b8035906020019184600183028401116401000000008311171561014457600080fd5b91908080601f016020809104026020016040519081016040528093929190818152602001838380828437600081840152601f19601f820116905080830192505050505050509192919290803590602001906401000000008111156101a757600080fd5b8201836020820111156101b957600080fd5b803590602001918460018302840111640100000000831117156101db57600080fd5b91908080601f016020809104026020016040519081016040528093929190818152602001838380828437600081840152601f19601f820116905080830192505050505050509192919290803590602001909291905050506103dd565b005b6102656004803603602081101561024f57600080fd5b81019080803590602001909291905050506104d1565b60405180806020018060200180602001858152602001848103845288818151815260200191508051906020019080838360005b838110156102b3578082015181840152602081019050610298565b50505050905090810190601f1680156102e05780820380516001836020036101000a031916815260200191505b50848103835287818151815260200191508051906020019080838360005b838110156103195780820151818401526020810190506102fe565b50505050905090810190601f1680156103465780820380516001836020036101000a031916815260200191505b50848103825286818151815260200191508051906020019080838360005b8381101561037f578082015181840152602081019050610364565b50505050905090810190601f1680156103ac5780820380516001836020036101000a031916815260200191505b5097505050505050505060405180910390f35b6103c7610761565b6040518082815260200191505060405180910390f35b6000803373ffffffffffffffffffffffffffffffffffffffff1673ffffffffffffffffffffffffffffffffffffffff1681526020019081526020016000206040518060800160405280868152602001858152602001848152602001838152509080600181540180825580915050906001820390600052602060002090600402016000909192909190915060008201518160000190805190602001906104839291906107aa565b5060208201518160010190805190602001906104a09291906107aa565b5060408201518160020190805190602001906104bd9291906107aa565b506060820151816003015550505050505050565b606080606060006104e061082a565b6000803373ffffffffffffffffffffffffffffffffffffffff1673ffffffffffffffffffffffffffffffffffffffff168152602001908152602001600020868154811061052957fe5b9060005260206000209060040201604051806080016040529081600082018054600181600116156101000203166002900480601f0160208091040260200160405190810160405280929190818152602001828054600181600116156101000203166002900480156105db5780601f106105b0576101008083540402835291602001916105db565b820191906000526020600020905b8154815290600101906020018083116105be57829003601f168201915b50505050508152602001600182018054600181600116156101000203166002900480601f01602080910402602001604051908101604052809291908181526020018280546001816001161561010002031660029004801561067d5780601f106106525761010080835404028352916020019161067d565b820191906000526020600020905b81548152906001019060200180831161066057829003601f168201915b50505050508152602001600282018054600181600116156101000203166002900480601f01602080910402602001604051908101604052809291908181526020018280546001816001161561010002031660029004801561071f5780601f106106f45761010080835404028352916020019161071f565b820191906000526020600020905b81548152906001019060200180831161070257829003601f168201915b50505050508152602001600382015481525050905080600001518160200151826040015183606001518393508292508191509450945094509450509193509193565b60008060003373ffffffffffffffffffffffffffffffffffffffff1673ffffffffffffffffffffffffffffffffffffffff16815260200190815260200160002080549050905090565b828054600181600116156101000203166002900490600052602060002090601f016020900481019282601f106107eb57805160ff1916838001178555610819565b82800160010185558215610819579182015b828111156108185782518255916020019190600101906107fd565b5b5090506108269190610852565b5090565b6040518060800160405280606081526020016060815260200160608152602001600081525090565b61087491905b80821115610870576000816000905550600101610858565b5090565b9056fea265627a7a723158209b5b587f450d45d6facba7013b4b2ff6fa46c136ef7bd6377f53803b9b5f7aec64736f6c63430005100032",
  "source": "pragma solidity ^0.5.0;\r\n\r\ncontract ArmazenadorContrato {\r\n    struct Arquivo {\r\n        string hash;\r\n        string nomeArquivo;\r\n        string tipoArquivo;\r\n        uint data;\r\n    }\r\n\r\n    mapping(address => Arquivo[]) arquivos;\r\n\r\n    function add(string memory _hash, string memory _nomeArquivo, string memory _tipoArquivo, uint _data) public {\r\n        arquivos[msg.sender].push(Arquivo({hash: _hash, nomeArquivo: _nomeArquivo, tipoArquivo: _tipoArquivo, data: _data}));\r\n    }\r\n\r\n    function getArquivo(uint _index) public view returns(string memory, string memory, string memory, uint) {\r\n        Arquivo memory arquivo = arquivos[msg.sender][_index];\r\n        return (arquivo.hash, arquivo.nomeArquivo, arquivo.tipoArquivo, arquivo.data);\r\n    }\r\n\r\n    function getLength() public view returns(uint) {\r\n        return arquivos[msg.sender].length;\r\n    }\r\n}",
  "sourcePath": "E:\\dev_tcc3\\projeto_final\\contracts\\ArmazenadorContrato.sol",
  "compiler": {
    "name": "solc",
    "version": "0.5.16+commit.9c3226ce.Emscripten.clang"
  },
  "schemaVersion": "3.4.3",
  "updatedAt": "2021-09-11T22:23:56.273Z",
  "devdoc": {
    "methods": {}
  },
  "userdoc": {
    "methods": {}
  }
}